{
  "_format": "hh-sol-artifact-1",
  "contractName": "Voting",
  "sourceName": "contracts/voting.sol",
  "abi": [
    {
      "inputs": [],
      "stateMutability": "nonpayable",
      "type": "constructor"
    },
    {
      "anonymous": false,
      "inputs": [
        {
          "indexed": true,
          "internalType": "address",
          "name": "voter",
          "type": "address"
        },
        {
          "indexed": true,
          "internalType": "uint256",
          "name": "candidateId",
          "type": "uint256"
        }
      ],
      "name": "votes",
      "type": "event"
    },
    {
      "inputs": [],
      "name": "candidateNo",
      "outputs": [
        {
          "internalType": "uint256",
          "name": "",
          "type": "uint256"
        }
      ],
      "stateMutability": "view",
      "type": "function"
    },
    {
      "inputs": [
        {
          "internalType": "uint256",
          "name": "",
          "type": "uint256"
        }
      ],
      "name": "candidates",
      "outputs": [
        {
          "internalType": "uint256",
          "name": "id",
          "type": "uint256"
        },
        {
          "internalType": "string",
          "name": "name",
          "type": "string"
        },
        {
          "internalType": "uint256",
          "name": "voteCount",
          "type": "uint256"
        }
      ],
      "stateMutability": "view",
      "type": "function"
    },
    {
      "inputs": [
        {
          "internalType": "address",
          "name": "",
          "type": "address"
        }
      ],
      "name": "isVoted",
      "outputs": [
        {
          "internalType": "bool",
          "name": "",
          "type": "bool"
        }
      ],
      "stateMutability": "view",
      "type": "function"
    },
    {
      "inputs": [
        {
          "internalType": "uint256",
          "name": "_candidateId",
          "type": "uint256"
        }
      ],
      "name": "vote",
      "outputs": [],
      "stateMutability": "nonpayable",
      "type": "function"
    }
  ],
  "bytecode": "0x608060405234801561001057600080fd5b506100556040518060400160405280600781526020017f506572736f6e310000000000000000000000000000000000000000000000000081525061009e60201b60201c565b6100996040518060400160405280600781526020017f506572736f6e320000000000000000000000000000000000000000000000000081525061009e60201b60201c565b6102a6565b600260008154809291906100b1906101ff565b919050555060405180606001604052806002548152602001828152602001600081525060016000600254815260200190815260200160002060008201518160000155602082015181600101908051906020019061010f929190610120565b506040820151816002015590505050565b82805461012c906101cd565b90600052602060002090601f01602090048101928261014e5760008555610195565b82601f1061016757805160ff1916838001178555610195565b82800160010185558215610195579182015b82811115610194578251825591602001919060010190610179565b5b5090506101a291906101a6565b5090565b5b808211156101bf5760008160009055506001016101a7565b5090565b6000819050919050565b600060028204905060018216806101e557607f821691505b602082108114156101f9576101f8610277565b5b50919050565b600061020a826101c3565b91507fffffffffffffffffffffffffffffffffffffffffffffffffffffffffffffffff82141561023d5761023c610248565b5b600182019050919050565b7f4e487b7100000000000000000000000000000000000000000000000000000000600052601160045260246000fd5b7f4e487b7100000000000000000000000000000000000000000000000000000000600052602260045260246000fd5b61076e806102b56000396000f3fe608060405234801561001057600080fd5b506004361061004c5760003560e01c80630121b93f146100515780633477ee2e1461006d5780637aad8c801461009f578063cbff75cb146100bd575b600080fd5b61006b600480360381019061006691906103d5565b6100ed565b005b610087600480360381019061008291906103d5565b6102aa565b6040516100969392919061054b565b60405180910390f35b6100a761035c565b6040516100b49190610530565b60405180910390f35b6100d760048036038101906100d291906103ac565b610362565b6040516100e491906104d5565b60405180910390f35b6000803373ffffffffffffffffffffffffffffffffffffffff1673ffffffffffffffffffffffffffffffffffffffff16815260200190815260200160002060009054906101000a900460ff1615610179576040517f08c379a000000000000000000000000000000000000000000000000000000000815260040161017090610510565b60405180910390fd5b600060016000838152602001908152602001600020600201541180156101a157506002548111155b6101e0576040517f08c379a00000000000000000000000000000000000000000000000000000000081526004016101d7906104f0565b60405180910390fd5b60016000803373ffffffffffffffffffffffffffffffffffffffff1673ffffffffffffffffffffffffffffffffffffffff16815260200190815260200160002060006101000a81548160ff02191690831515021790555060016000828152602001908152602001600020600201600081548092919061025e90610652565b9190505550803373ffffffffffffffffffffffffffffffffffffffff167f9f2524eed41331e266d0ab5fa371eca3970d492707a78f134829ada545fa42cb60405160405180910390a350565b60016020528060005260406000206000915090508060000154908060010180546102d390610620565b80601f01602080910402602001604051908101604052809291908181526020018280546102ff90610620565b801561034c5780601f106103215761010080835404028352916020019161034c565b820191906000526020600020905b81548152906001019060200180831161032f57829003601f168201915b5050505050908060020154905083565b60025481565b60006020528060005260406000206000915054906101000a900460ff1681565b6000813590506103918161070a565b92915050565b6000813590506103a681610721565b92915050565b6000602082840312156103be57600080fd5b60006103cc84828501610382565b91505092915050565b6000602082840312156103e757600080fd5b60006103f584828501610397565b91505092915050565b610407816105b7565b82525050565b600061041882610589565b6104228185610594565b93506104328185602086016105ed565b61043b816106f9565b840191505092915050565b6000610453601883610594565b91507f43616e64696461746520646f6573206e6f7420657869737400000000000000006000830152602082019050919050565b6000610493601683610594565b91507f596f75206861766520616c726561647920766f746564000000000000000000006000830152602082019050919050565b6104cf816105e3565b82525050565b60006020820190506104ea60008301846103fe565b92915050565b6000602082019050818103600083015261050981610446565b9050919050565b6000602082019050818103600083015261052981610486565b9050919050565b600060208201905061054560008301846104c6565b92915050565b600060608201905061056060008301866104c6565b8181036020830152610572818561040d565b905061058160408301846104c6565b949350505050565b600081519050919050565b600082825260208201905092915050565b60006105b0826105c3565b9050919050565b60008115159050919050565b600073ffffffffffffffffffffffffffffffffffffffff82169050919050565b6000819050919050565b60005b8381101561060b5780820151818401526020810190506105f0565b8381111561061a576000848401525b50505050565b6000600282049050600182168061063857607f821691505b6020821081141561064c5761064b6106ca565b5b50919050565b600061065d826105e3565b91507fffffffffffffffffffffffffffffffffffffffffffffffffffffffffffffffff8214156106905761068f61069b565b5b600182019050919050565b7f4e487b7100000000000000000000000000000000000000000000000000000000600052601160045260246000fd5b7f4e487b7100000000000000000000000000000000000000000000000000000000600052602260045260246000fd5b6000601f19601f8301169050919050565b610713816105a5565b811461071e57600080fd5b50565b61072a816105e3565b811461073557600080fd5b5056fea26469706673582212208d085c95e30e3cff59a24cd0ddd95b411376dadfe29c7249aea5d764c0a2e03a64736f6c63430008000033",
  "linkReferences": {},
  "deployedLinkReferences": {}
}